{
  "_format": "hh-sol-artifact-1",
  "contractName": "DiplomaRegistry",
  "sourceName": "contracts/DiplomaRegistry.sol",
  "abi": [
    {
      "anonymous": false,
      "inputs": [
        {
          "indexed": true,
          "internalType": "string",
          "name": "documentId",
          "type": "string"
        },
        {
          "indexed": false,
          "internalType": "string",
          "name": "actionType",
          "type": "string"
        },
        {
          "indexed": true,
          "internalType": "address",
          "name": "actor",
          "type": "address"
        },
        {
          "indexed": false,
          "internalType": "uint256",
          "name": "timestamp",
          "type": "uint256"
        }
      ],
      "name": "ActionEmitted",
      "type": "event"
    },
    {
      "anonymous": false,
      "inputs": [
        {
          "indexed": true,
          "internalType": "string",
          "name": "documentId",
          "type": "string"
        },
        {
          "indexed": true,
          "internalType": "bytes32",
          "name": "hash",
          "type": "bytes32"
        },
        {
          "indexed": true,
          "internalType": "address",
          "name": "issuer",
          "type": "address"
        },
        {
          "indexed": false,
          "internalType": "uint256",
          "name": "timestamp",
          "type": "uint256"
        }
      ],
      "name": "DocumentRegistered",
      "type": "event"
    },
    {
      "anonymous": false,
      "inputs": [
        {
          "indexed": true,
          "internalType": "string",
          "name": "documentId",
          "type": "string"
        },
        {
          "indexed": true,
          "internalType": "bytes32",
          "name": "hash",
          "type": "bytes32"
        },
        {
          "indexed": true,
          "internalType": "address",
          "name": "actor",
          "type": "address"
        },
        {
          "indexed": false,
          "internalType": "enum DiplomaRegistry.DocumentStatus",
          "name": "status",
          "type": "uint8"
        },
        {
          "indexed": false,
          "internalType": "uint256",
          "name": "timestamp",
          "type": "uint256"
        }
      ],
      "name": "StageLogged",
      "type": "event"
    },
    {
      "inputs": [
        {
          "internalType": "string",
          "name": "documentId",
          "type": "string"
        },
        {
          "internalType": "string",
          "name": "actionType",
          "type": "string"
        }
      ],
      "name": "emitActionEvent",
      "outputs": [],
      "stateMutability": "nonpayable",
      "type": "function"
    },
    {
      "inputs": [
        {
          "internalType": "string",
          "name": "documentId",
          "type": "string"
        }
      ],
      "name": "getDocument",
      "outputs": [
        {
          "components": [
            {
              "internalType": "string",
              "name": "documentId",
              "type": "string"
            },
            {
              "internalType": "bytes32",
              "name": "hash",
              "type": "bytes32"
            },
            {
              "internalType": "address",
              "name": "issuer",
              "type": "address"
            },
            {
              "internalType": "uint256",
              "name": "timestamp",
              "type": "uint256"
            },
            {
              "internalType": "enum DiplomaRegistry.DocumentStatus",
              "name": "status",
              "type": "uint8"
            },
            {
              "internalType": "bool",
              "name": "exists",
              "type": "bool"
            }
          ],
          "internalType": "struct DiplomaRegistry.DocumentRecord",
          "name": "",
          "type": "tuple"
        }
      ],
      "stateMutability": "view",
      "type": "function"
    },
    {
      "inputs": [
        {
          "internalType": "string",
          "name": "documentId",
          "type": "string"
        },
        {
          "internalType": "bytes32",
          "name": "hash",
          "type": "bytes32"
        },
        {
          "internalType": "enum DiplomaRegistry.DocumentStatus",
          "name": "status",
          "type": "uint8"
        }
      ],
      "name": "logEvent",
      "outputs": [],
      "stateMutability": "nonpayable",
      "type": "function"
    },
    {
      "inputs": [
        {
          "internalType": "string",
          "name": "documentId",
          "type": "string"
        },
        {
          "internalType": "bytes32",
          "name": "hash",
          "type": "bytes32"
        }
      ],
      "name": "registerDocument",
      "outputs": [],
      "stateMutability": "nonpayable",
      "type": "function"
    },
    {
      "inputs": [
        {
          "internalType": "string",
          "name": "documentId",
          "type": "string"
        },
        {
          "internalType": "bytes32",
          "name": "hash",
          "type": "bytes32"
        }
      ],
      "name": "verifyDocument",
      "outputs": [
        {
          "internalType": "bool",
          "name": "",
          "type": "bool"
        }
      ],
      "stateMutability": "view",
      "type": "function"
    }
  ],
  "bytecode": "0x608060405234801561001057600080fd5b50610aaa806100206000396000f3fe608060405234801561001057600080fd5b50600436106100575760003560e01c80633107ed831461005c57806344f9d7281461007157806374152d38146100845780637ccb6a64146100ac578063c5748755146100cc575b600080fd5b61006f61006a366004610640565b6100df565b005b61006f61007f36600461068c565b6101bd565b610097610092366004610640565b610366565b60405190151581526020015b60405180910390f35b6100bf6100ba3660046106ef565b6103d7565b6040516100a39190610769565b61006f6100da366004610815565b61053c565b816101055760405162461bcd60e51b81526004016100fc90610881565b60405180910390fd5b60008084846040516101189291906108ae565b90815260405190819003602001902090508061013584868361095f565b50600181018290556002810180546001600160a01b0319163390811790915542600383015560048201805461ffff1916610105179055604051839061017d90879087906108ae565b604051908190038120428252907f2bb9612f766802797e14966fe5c95a6ebc095db3a385fe4fcb6b905c05a721b79060200160405180910390a450505050565b826101da5760405162461bcd60e51b81526004016100fc90610881565b60008160058111156101ee576101ee610731565b0361022c5760405162461bcd60e51b815260206004820152600e60248201526d696e76616c69642073746174757360901b60448201526064016100fc565b600080858560405161023f9291906108ae565b908152604051908190036020019020600481015490915060ff610100909104166102ce578061026f85878361095f565b5060018082018490556002820180546001600160a01b03191633179055426003830155600482018054849260ff19909116908360058111156102b3576102b3610731565b021790555060048101805461ff001916610100179055610303565b6001808201849055600482018054849260ff19909116908360058111156102f7576102f7610731565b02179055504260038201555b336001600160a01b031683868660405161031e9291906108ae565b60405180910390207f58dede0f04306e8c2f25c8c8fc556a053349742b0975a0d83846004b0f8abd978542604051610357929190610a20565b60405180910390a45050505050565b6000806000858560405161037b9291906108ae565b908152604051908190036020019020600481015490915060ff6101009091041680156103bf57506005600482015460ff1660058111156103bd576103bd610731565b145b80156103ce5750828160010154145b95945050505050565b6040805160c081018252606080825260006020830181905292820183905281018290526080810182905260a08101919091526000838360405161041b9291906108ae565b90815260200160405180910390206040518060c0016040529081600082018054610444906108d4565b80601f0160208091040260200160405190810160405280929190818152602001828054610470906108d4565b80156104bd5780601f10610492576101008083540402835291602001916104bd565b820191906000526020600020905b8154815290600101906020018083116104a057829003601f168201915b50505091835250506001820154602082015260028201546001600160a01b0316604082015260038201546060820152600482015460809091019060ff16600581111561050b5761050b610731565b600581111561051c5761051c610731565b815260049190910154610100900460ff1615156020909101529392505050565b826105595760405162461bcd60e51b81526004016100fc90610881565b8061059c5760405162461bcd60e51b81526020600482015260136024820152721858dd1a5bdb951e5c19481c995c5d5a5c9959606a1b60448201526064016100fc565b60405133906105ae90869086906108ae565b60405180910390207f5f57e099a782ae8d66c1ba884db11b53d852c654aaed3d44af96b520eb913ed68484426040516105e993929190610a3b565b60405180910390a350505050565b60008083601f84011261060957600080fd5b50813567ffffffffffffffff81111561062157600080fd5b60208301915083602082850101111561063957600080fd5b9250929050565b60008060006040848603121561065557600080fd5b833567ffffffffffffffff81111561066c57600080fd5b610678868287016105f7565b909790965060209590950135949350505050565b600080600080606085870312156106a257600080fd5b843567ffffffffffffffff8111156106b957600080fd5b6106c5878288016105f7565b909550935050602085013591506040850135600681106106e457600080fd5b939692955090935050565b6000806020838503121561070257600080fd5b823567ffffffffffffffff81111561071957600080fd5b610725858286016105f7565b90969095509350505050565b634e487b7160e01b600052602160045260246000fd5b6006811061076557634e487b7160e01b600052602160045260246000fd5b9052565b60006020808352835160c0602085015280518060e086015260005b818110156107a15782810184015186820161010001528301610784565b506101009250600083828701015260208601516040860152604086015191506107d560608601836001600160a01b03169052565b60608601516080860152608086015191506107f360a0860183610747565b60a086015180151560c08701529150601f01601f191693909301019392505050565b6000806000806040858703121561082b57600080fd5b843567ffffffffffffffff8082111561084357600080fd5b61084f888389016105f7565b9096509450602087013591508082111561086857600080fd5b50610875878288016105f7565b95989497509550505050565b602080825260139082015272191bd8dd5b595b9d1259081c995c5d5a5c9959606a1b604082015260600190565b8183823760009101908152919050565b634e487b7160e01b600052604160045260246000fd5b600181811c908216806108e857607f821691505b60208210810361090857634e487b7160e01b600052602260045260246000fd5b50919050565b601f82111561095a576000816000526020600020601f850160051c810160208610156109375750805b601f850160051c820191505b8181101561095657828155600101610943565b5050505b505050565b67ffffffffffffffff831115610977576109776108be565b61098b8361098583546108d4565b8361090e565b6000601f8411600181146109bf57600085156109a75750838201355b600019600387901b1c1916600186901b178355610a19565b600083815260209020601f19861690835b828110156109f057868501358255602094850194600190920191016109d0565b5086821015610a0d5760001960f88860031b161c19848701351681555b505060018560011b0183555b5050505050565b60408101610a2e8285610747565b8260208301529392505050565b604081528260408201528284606083013760006060848301015260006060601f19601f860116830101905082602083015294935050505056fea2646970667358221220a076586f8736193f67bb6f7c16955a07aca083d9f333bfe454f066d7938951d464736f6c63430008180033",
  "linkReferences": {},
  "deployedLinkReferences": {}
}